{
	"CallAnything.sol": {
		"CallAnything": {
			"abi": [
				{
					"inputs": [
						{
							"internalType": "address",
							"name": "someAddress",
							"type": "address"
						},
						{
							"internalType": "uint256",
							"name": "amount",
							"type": "uint256"
						}
					],
					"name": "callFunctionWithBinary",
					"outputs": [
						{
							"internalType": "bytes4",
							"name": "",
							"type": "bytes4"
						},
						{
							"internalType": "bool",
							"name": "",
							"type": "bool"
						}
					],
					"stateMutability": "nonpayable",
					"type": "function"
				},
				{
					"inputs": [],
					"name": "getSelector1",
					"outputs": [
						{
							"internalType": "bytes4",
							"name": "selector",
							"type": "bytes4"
						}
					],
					"stateMutability": "pure",
					"type": "function"
				},
				{
					"inputs": [
						{
							"internalType": "address",
							"name": "someAddress",
							"type": "address"
						},
						{
							"internalType": "uint256",
							"name": "amount",
							"type": "uint256"
						}
					],
					"name": "getdataToCallTransfer",
					"outputs": [
						{
							"internalType": "bytes",
							"name": "",
							"type": "bytes"
						}
					],
					"stateMutability": "pure",
					"type": "function"
				},
				{
					"inputs": [],
					"name": "s_amount",
					"outputs": [
						{
							"internalType": "uint256",
							"name": "",
							"type": "uint256"
						}
					],
					"stateMutability": "view",
					"type": "function"
				},
				{
					"inputs": [],
					"name": "s_someAddress",
					"outputs": [
						{
							"internalType": "address",
							"name": "",
							"type": "address"
						}
					],
					"stateMutability": "view",
					"type": "function"
				},
				{
					"inputs": [
						{
							"internalType": "address",
							"name": "someAddress",
							"type": "address"
						},
						{
							"internalType": "uint256",
							"name": "amount",
							"type": "uint256"
						}
					],
					"name": "transfer",
					"outputs": [],
					"stateMutability": "nonpayable",
					"type": "function"
				}
			],
			"devdoc": {
				"kind": "dev",
				"methods": {},
				"version": 1
			},
			"evm": {
				"assembly": "    /* \"CallAnything.sol\":236:1142  contract CallAnything {... */\n  mstore(0x40, 0x80)\n  callvalue\n  dup1\n  iszero\n  tag_1\n  jumpi\n  0x00\n  dup1\n  revert\ntag_1:\n  pop\n  dataSize(sub_0)\n  dup1\n  dataOffset(sub_0)\n  0x00\n  codecopy\n  0x00\n  return\nstop\n\nsub_0: assembly {\n        /* \"CallAnything.sol\":236:1142  contract CallAnything {... */\n      mstore(0x40, 0x80)\n      callvalue\n      dup1\n      iszero\n      tag_1\n      jumpi\n      0x00\n      dup1\n      revert\n    tag_1:\n      pop\n      jumpi(tag_2, lt(calldatasize, 0x04))\n      shr(0xe0, calldataload(0x00))\n      dup1\n      0x1e30088a\n      eq\n      tag_3\n      jumpi\n      dup1\n      0x231de49b\n      eq\n      tag_4\n      jumpi\n      dup1\n      0xa9059cbb\n      eq\n      tag_5\n      jumpi\n      dup1\n      0xaad229d5\n      eq\n      tag_6\n      jumpi\n      dup1\n      0xc6e93bad\n      eq\n      tag_7\n      jumpi\n      dup1\n      0xe53aeefa\n      eq\n      tag_8\n      jumpi\n    tag_2:\n      0x00\n      dup1\n      revert\n        /* \"CallAnything.sol\":634:821  function getdataToCallTransfer(address someAddress, uint256 amount) public pure returns(bytes memory) {... */\n    tag_3:\n      tag_9\n      0x04\n      dup1\n      calldatasize\n      sub\n      dup2\n      add\n      swap1\n      tag_10\n      swap2\n      swap1\n      tag_11\n      jump\t// in\n    tag_10:\n      tag_12\n      jump\t// in\n    tag_9:\n      mload(0x40)\n      tag_13\n      swap2\n      swap1\n      tag_14\n      jump\t// in\n    tag_13:\n      mload(0x40)\n      dup1\n      swap2\n      sub\n      swap1\n      return\n        /* \"CallAnything.sol\":831:1137  function callFunctionWithBinary(address someAddress, uint256 amount) public returns(bytes4, bool) {... */\n    tag_4:\n      tag_15\n      0x04\n      dup1\n      calldatasize\n      sub\n      dup2\n      add\n      swap1\n      tag_16\n      swap2\n      swap1\n      tag_11\n      jump\t// in\n    tag_16:\n      tag_17\n      jump\t// in\n    tag_15:\n      mload(0x40)\n      tag_18\n      swap3\n      swap2\n      swap1\n      tag_19\n      jump\t// in\n    tag_18:\n      mload(0x40)\n      dup1\n      swap2\n      sub\n      swap1\n      return\n        /* \"CallAnything.sol\":336:472  function transfer(address someAddress, uint256 amount) public {... */\n    tag_5:\n      tag_20\n      0x04\n      dup1\n      calldatasize\n      sub\n      dup2\n      add\n      swap1\n      tag_21\n      swap2\n      swap1\n      tag_11\n      jump\t// in\n    tag_21:\n      tag_22\n      jump\t// in\n    tag_20:\n      stop\n        /* \"CallAnything.sol\":267:295  address public s_someAddress */\n    tag_6:\n      tag_23\n      tag_24\n      jump\t// in\n    tag_23:\n      mload(0x40)\n      tag_25\n      swap2\n      swap1\n      tag_26\n      jump\t// in\n    tag_25:\n      mload(0x40)\n      dup1\n      swap2\n      sub\n      swap1\n      return\n        /* \"CallAnything.sol\":302:325  uint256 public s_amount */\n    tag_7:\n      tag_27\n      tag_28\n      jump\t// in\n    tag_27:\n      mload(0x40)\n      tag_29\n      swap2\n      swap1\n      tag_30\n      jump\t// in\n    tag_29:\n      mload(0x40)\n      dup1\n      swap2\n      sub\n      swap1\n      return\n        /* \"CallAnything.sol\":482:626  function getSelector1() public pure returns(bytes4 selector) {... */\n    tag_8:\n      tag_31\n      tag_32\n      jump\t// in\n    tag_31:\n      mload(0x40)\n      tag_33\n      swap2\n      swap1\n      tag_34\n      jump\t// in\n    tag_33:\n      mload(0x40)\n      dup1\n      swap2\n      sub\n      swap1\n      return\n        /* \"CallAnything.sol\":634:821  function getdataToCallTransfer(address someAddress, uint256 amount) public pure returns(bytes memory) {... */\n    tag_12:\n        /* \"CallAnything.sol\":722:734  bytes memory */\n      0x60\n        /* \"CallAnything.sol\":777:791  getSelector1() */\n      tag_36\n        /* \"CallAnything.sol\":777:789  getSelector1 */\n      tag_32\n        /* \"CallAnything.sol\":777:791  getSelector1() */\n      jump\t// in\n    tag_36:\n        /* \"CallAnything.sol\":793:804  someAddress */\n      dup4\n        /* \"CallAnything.sol\":806:812  amount */\n      dup4\n        /* \"CallAnything.sol\":754:813  abi.encodeWithSelector(getSelector1(), someAddress, amount) */\n      add(0x24, mload(0x40))\n      tag_37\n      swap3\n      swap2\n      swap1\n      tag_38\n      jump\t// in\n    tag_37:\n      mload(0x40)\n      0x20\n      dup2\n      dup4\n      sub\n      sub\n      dup2\n      mstore\n      swap1\n      0x40\n      mstore\n      swap1\n      not(0xffffffffffffffffffffffffffffffffffffffffffffffffffffffff)\n      and\n      0x20\n      dup3\n      add\n      dup1\n      mload\n      0xffffffffffffffffffffffffffffffffffffffffffffffffffffffff\n      dup4\n      dup2\n      dup4\n      and\n      or\n      dup4\n      mstore\n      pop\n      pop\n      pop\n      pop\n        /* \"CallAnything.sol\":747:813  return abi.encodeWithSelector(getSelector1(), someAddress, amount) */\n      swap1\n      pop\n        /* \"CallAnything.sol\":634:821  function getdataToCallTransfer(address someAddress, uint256 amount) public pure returns(bytes memory) {... */\n      swap3\n      swap2\n      pop\n      pop\n      jump\t// out\n        /* \"CallAnything.sol\":831:1137  function callFunctionWithBinary(address someAddress, uint256 amount) public returns(bytes4, bool) {... */\n    tag_17:\n        /* \"CallAnything.sol\":915:921  bytes4 */\n      0x00\n        /* \"CallAnything.sol\":923:927  bool */\n      dup1\n        /* \"CallAnything.sol\":937:949  bool success */\n      0x00\n        /* \"CallAnything.sol\":951:974  bytes memory returnData */\n      dup1\n        /* \"CallAnything.sol\":988:992  this */\n      address\n        /* \"CallAnything.sol\":980:998  address(this).call */\n      0xffffffffffffffffffffffffffffffffffffffff\n      and\n        /* \"CallAnything.sol\":1036:1050  getSelector1() */\n      tag_40\n        /* \"CallAnything.sol\":1036:1048  getSelector1 */\n      tag_32\n        /* \"CallAnything.sol\":1036:1050  getSelector1() */\n      jump\t// in\n    tag_40:\n        /* \"CallAnything.sol\":1052:1063  someAddress */\n      dup8\n        /* \"CallAnything.sol\":1065:1071  amount */\n      dup8\n        /* \"CallAnything.sol\":1013:1072  abi.encodeWithSelector(getSelector1(), someAddress, amount) */\n      add(0x24, mload(0x40))\n      tag_41\n      swap3\n      swap2\n      swap1\n      tag_38\n      jump\t// in\n    tag_41:\n      mload(0x40)\n      0x20\n      dup2\n      dup4\n      sub\n      sub\n      dup2\n      mstore\n      swap1\n      0x40\n      mstore\n      swap1\n      not(0xffffffffffffffffffffffffffffffffffffffffffffffffffffffff)\n      and\n      0x20\n      dup3\n      add\n      dup1\n      mload\n      0xffffffffffffffffffffffffffffffffffffffffffffffffffffffff\n      dup4\n      dup2\n      dup4\n      and\n      or\n      dup4\n      mstore\n      pop\n      pop\n      pop\n      pop\n        /* \"CallAnything.sol\":980:1083  address(this).call(... */\n      mload(0x40)\n      tag_42\n      swap2\n      swap1\n      tag_43\n      jump\t// in\n    tag_42:\n      0x00\n      mload(0x40)\n      dup1\n      dup4\n      sub\n      dup2\n      0x00\n      dup7\n      gas\n      call\n      swap2\n      pop\n      pop\n      returndatasize\n      dup1\n      0x00\n      dup2\n      eq\n      tag_46\n      jumpi\n      mload(0x40)\n      swap2\n      pop\n      and(add(returndatasize, 0x3f), not(0x1f))\n      dup3\n      add\n      0x40\n      mstore\n      returndatasize\n      dup3\n      mstore\n      returndatasize\n      0x00\n      0x20\n      dup5\n      add\n      returndatacopy\n      jump(tag_45)\n    tag_46:\n      0x60\n      swap2\n      pop\n    tag_45:\n      pop\n        /* \"CallAnything.sol\":936:1083  (bool success, bytes memory returnData) =   address(this).call(... */\n      swap2\n      pop\n      swap2\n      pop\n        /* \"CallAnything.sol\":1108:1118  returnData */\n      dup1\n        /* \"CallAnything.sol\":1101:1119  bytes4(returnData) */\n      tag_47\n      swap1\n      tag_48\n      jump\t// in\n    tag_47:\n        /* \"CallAnything.sol\":1121:1128  success */\n      dup3\n        /* \"CallAnything.sol\":1094:1129  return(bytes4(returnData), success) */\n      swap4\n      pop\n      swap4\n      pop\n      pop\n      pop\n        /* \"CallAnything.sol\":831:1137  function callFunctionWithBinary(address someAddress, uint256 amount) public returns(bytes4, bool) {... */\n      swap3\n      pop\n      swap3\n      swap1\n      pop\n      jump\t// out\n        /* \"CallAnything.sol\":336:472  function transfer(address someAddress, uint256 amount) public {... */\n    tag_22:\n        /* \"CallAnything.sol\":425:436  someAddress */\n      dup2\n        /* \"CallAnything.sol\":409:422  s_someAddress */\n      0x00\n      dup1\n        /* \"CallAnything.sol\":409:436  s_someAddress = someAddress */\n      0x0100\n      exp\n      dup2\n      sload\n      dup2\n      0xffffffffffffffffffffffffffffffffffffffff\n      mul\n      not\n      and\n      swap1\n      dup4\n      0xffffffffffffffffffffffffffffffffffffffff\n      and\n      mul\n      or\n      swap1\n      sstore\n      pop\n        /* \"CallAnything.sol\":458:464  amount */\n      dup1\n        /* \"CallAnything.sol\":447:455  s_amount */\n      0x01\n        /* \"CallAnything.sol\":447:464  s_amount = amount */\n      dup2\n      swap1\n      sstore\n      pop\n        /* \"CallAnything.sol\":336:472  function transfer(address someAddress, uint256 amount) public {... */\n      pop\n      pop\n      jump\t// out\n        /* \"CallAnything.sol\":267:295  address public s_someAddress */\n    tag_24:\n      0x00\n      dup1\n      sload\n      swap1\n      0x0100\n      exp\n      swap1\n      div\n      0xffffffffffffffffffffffffffffffffffffffff\n      and\n      dup2\n      jump\t// out\n        /* \"CallAnything.sol\":302:325  uint256 public s_amount */\n    tag_28:\n      sload(0x01)\n      dup2\n      jump\t// out\n        /* \"CallAnything.sol\":482:626  function getSelector1() public pure returns(bytes4 selector) {... */\n    tag_32:\n        /* \"CallAnything.sol\":526:541  bytes4 selector */\n      0x00\n        /* \"CallAnything.sol\":582:616  bytes(\"transfer(address,uint256)\") */\n      mload(0x40)\n      dup1\n      0x40\n      add\n      0x40\n      mstore\n      dup1\n      0x19\n      dup2\n      mstore\n      0x20\n      add\n      0x7472616e7366657228616464726573732c75696e743235362900000000000000\n      dup2\n      mstore\n      pop\n        /* \"CallAnything.sol\":572:617  keccak256(bytes(\"transfer(address,uint256)\")) */\n      dup1\n      mload\n      swap1\n      0x20\n      add\n      keccak256\n        /* \"CallAnything.sol\":554:618  selector = bytes4(keccak256(bytes(\"transfer(address,uint256)\"))) */\n      swap1\n      pop\n        /* \"CallAnything.sol\":482:626  function getSelector1() public pure returns(bytes4 selector) {... */\n      swap1\n      jump\t// out\n        /* \"#utility.yul\":88:205   */\n    tag_52:\n        /* \"#utility.yul\":197:198   */\n      0x00\n        /* \"#utility.yul\":194:195   */\n      dup1\n        /* \"#utility.yul\":187:199   */\n      revert\n        /* \"#utility.yul\":334:460   */\n    tag_54:\n        /* \"#utility.yul\":371:378   */\n      0x00\n        /* \"#utility.yul\":411:453   */\n      0xffffffffffffffffffffffffffffffffffffffff\n        /* \"#utility.yul\":404:409   */\n      dup3\n        /* \"#utility.yul\":400:454   */\n      and\n        /* \"#utility.yul\":389:454   */\n      swap1\n      pop\n        /* \"#utility.yul\":334:460   */\n      swap2\n      swap1\n      pop\n      jump\t// out\n        /* \"#utility.yul\":466:562   */\n    tag_55:\n        /* \"#utility.yul\":503:510   */\n      0x00\n        /* \"#utility.yul\":532:556   */\n      tag_83\n        /* \"#utility.yul\":550:555   */\n      dup3\n        /* \"#utility.yul\":532:556   */\n      tag_54\n      jump\t// in\n    tag_83:\n        /* \"#utility.yul\":521:556   */\n      swap1\n      pop\n        /* \"#utility.yul\":466:562   */\n      swap2\n      swap1\n      pop\n      jump\t// out\n        /* \"#utility.yul\":568:690   */\n    tag_56:\n        /* \"#utility.yul\":641:665   */\n      tag_85\n        /* \"#utility.yul\":659:664   */\n      dup2\n        /* \"#utility.yul\":641:665   */\n      tag_55\n      jump\t// in\n    tag_85:\n        /* \"#utility.yul\":634:639   */\n      dup2\n        /* \"#utility.yul\":631:666   */\n      eq\n        /* \"#utility.yul\":621:684   */\n      tag_86\n      jumpi\n        /* \"#utility.yul\":680:681   */\n      0x00\n        /* \"#utility.yul\":677:678   */\n      dup1\n        /* \"#utility.yul\":670:682   */\n      revert\n        /* \"#utility.yul\":621:684   */\n    tag_86:\n        /* \"#utility.yul\":568:690   */\n      pop\n      jump\t// out\n        /* \"#utility.yul\":696:835   */\n    tag_57:\n        /* \"#utility.yul\":742:747   */\n      0x00\n        /* \"#utility.yul\":780:786   */\n      dup2\n        /* \"#utility.yul\":767:787   */\n      calldataload\n        /* \"#utility.yul\":758:787   */\n      swap1\n      pop\n        /* \"#utility.yul\":796:829   */\n      tag_88\n        /* \"#utility.yul\":823:828   */\n      dup2\n        /* \"#utility.yul\":796:829   */\n      tag_56\n      jump\t// in\n    tag_88:\n        /* \"#utility.yul\":696:835   */\n      swap3\n      swap2\n      pop\n      pop\n      jump\t// out\n        /* \"#utility.yul\":841:918   */\n    tag_58:\n        /* \"#utility.yul\":878:885   */\n      0x00\n        /* \"#utility.yul\":907:912   */\n      dup2\n        /* \"#utility.yul\":896:912   */\n      swap1\n      pop\n        /* \"#utility.yul\":841:918   */\n      swap2\n      swap1\n      pop\n      jump\t// out\n        /* \"#utility.yul\":924:1046   */\n    tag_59:\n        /* \"#utility.yul\":997:1021   */\n      tag_91\n        /* \"#utility.yul\":1015:1020   */\n      dup2\n        /* \"#utility.yul\":997:1021   */\n      tag_58\n      jump\t// in\n    tag_91:\n        /* \"#utility.yul\":990:995   */\n      dup2\n        /* \"#utility.yul\":987:1022   */\n      eq\n        /* \"#utility.yul\":977:1040   */\n      tag_92\n      jumpi\n        /* \"#utility.yul\":1036:1037   */\n      0x00\n        /* \"#utility.yul\":1033:1034   */\n      dup1\n        /* \"#utility.yul\":1026:1038   */\n      revert\n        /* \"#utility.yul\":977:1040   */\n    tag_92:\n        /* \"#utility.yul\":924:1046   */\n      pop\n      jump\t// out\n        /* \"#utility.yul\":1052:1191   */\n    tag_60:\n        /* \"#utility.yul\":1098:1103   */\n      0x00\n        /* \"#utility.yul\":1136:1142   */\n      dup2\n        /* \"#utility.yul\":1123:1143   */\n      calldataload\n        /* \"#utility.yul\":1114:1143   */\n      swap1\n      pop\n        /* \"#utility.yul\":1152:1185   */\n      tag_94\n        /* \"#utility.yul\":1179:1184   */\n      dup2\n        /* \"#utility.yul\":1152:1185   */\n      tag_59\n      jump\t// in\n    tag_94:\n        /* \"#utility.yul\":1052:1191   */\n      swap3\n      swap2\n      pop\n      pop\n      jump\t// out\n        /* \"#utility.yul\":1197:1671   */\n    tag_11:\n        /* \"#utility.yul\":1265:1271   */\n      0x00\n        /* \"#utility.yul\":1273:1279   */\n      dup1\n        /* \"#utility.yul\":1322:1324   */\n      0x40\n        /* \"#utility.yul\":1310:1319   */\n      dup4\n        /* \"#utility.yul\":1301:1308   */\n      dup6\n        /* \"#utility.yul\":1297:1320   */\n      sub\n        /* \"#utility.yul\":1293:1325   */\n      slt\n        /* \"#utility.yul\":1290:1409   */\n      iszero\n      tag_96\n      jumpi\n        /* \"#utility.yul\":1328:1407   */\n      tag_97\n      tag_52\n      jump\t// in\n    tag_97:\n        /* \"#utility.yul\":1290:1409   */\n    tag_96:\n        /* \"#utility.yul\":1448:1449   */\n      0x00\n        /* \"#utility.yul\":1473:1526   */\n      tag_98\n        /* \"#utility.yul\":1518:1525   */\n      dup6\n        /* \"#utility.yul\":1509:1515   */\n      dup3\n        /* \"#utility.yul\":1498:1507   */\n      dup7\n        /* \"#utility.yul\":1494:1516   */\n      add\n        /* \"#utility.yul\":1473:1526   */\n      tag_57\n      jump\t// in\n    tag_98:\n        /* \"#utility.yul\":1463:1526   */\n      swap3\n      pop\n        /* \"#utility.yul\":1419:1536   */\n      pop\n        /* \"#utility.yul\":1575:1577   */\n      0x20\n        /* \"#utility.yul\":1601:1654   */\n      tag_99\n        /* \"#utility.yul\":1646:1653   */\n      dup6\n        /* \"#utility.yul\":1637:1643   */\n      dup3\n        /* \"#utility.yul\":1626:1635   */\n      dup7\n        /* \"#utility.yul\":1622:1644   */\n      add\n        /* \"#utility.yul\":1601:1654   */\n      tag_60\n      jump\t// in\n    tag_99:\n        /* \"#utility.yul\":1591:1654   */\n      swap2\n      pop\n        /* \"#utility.yul\":1546:1664   */\n      pop\n        /* \"#utility.yul\":1197:1671   */\n      swap3\n      pop\n      swap3\n      swap1\n      pop\n      jump\t// out\n        /* \"#utility.yul\":1677:1775   */\n    tag_61:\n        /* \"#utility.yul\":1728:1734   */\n      0x00\n        /* \"#utility.yul\":1762:1767   */\n      dup2\n        /* \"#utility.yul\":1756:1768   */\n      mload\n        /* \"#utility.yul\":1746:1768   */\n      swap1\n      pop\n        /* \"#utility.yul\":1677:1775   */\n      swap2\n      swap1\n      pop\n      jump\t// out\n        /* \"#utility.yul\":1781:1949   */\n    tag_62:\n        /* \"#utility.yul\":1864:1875   */\n      0x00\n        /* \"#utility.yul\":1898:1904   */\n      dup3\n        /* \"#utility.yul\":1893:1896   */\n      dup3\n        /* \"#utility.yul\":1886:1905   */\n      mstore\n        /* \"#utility.yul\":1938:1942   */\n      0x20\n        /* \"#utility.yul\":1933:1936   */\n      dup3\n        /* \"#utility.yul\":1929:1943   */\n      add\n        /* \"#utility.yul\":1914:1943   */\n      swap1\n      pop\n        /* \"#utility.yul\":1781:1949   */\n      swap3\n      swap2\n      pop\n      pop\n      jump\t// out\n        /* \"#utility.yul\":1955:2201   */\n    tag_63:\n        /* \"#utility.yul\":2036:2037   */\n      0x00\n        /* \"#utility.yul\":2046:2159   */\n    tag_103:\n        /* \"#utility.yul\":2060:2066   */\n      dup4\n        /* \"#utility.yul\":2057:2058   */\n      dup2\n        /* \"#utility.yul\":2054:2067   */\n      lt\n        /* \"#utility.yul\":2046:2159   */\n      iszero\n      tag_105\n      jumpi\n        /* \"#utility.yul\":2145:2146   */\n      dup1\n        /* \"#utility.yul\":2140:2143   */\n      dup3\n        /* \"#utility.yul\":2136:2147   */\n      add\n        /* \"#utility.yul\":2130:2148   */\n      mload\n        /* \"#utility.yul\":2126:2127   */\n      dup2\n        /* \"#utility.yul\":2121:2124   */\n      dup5\n        /* \"#utility.yul\":2117:2128   */\n      add\n        /* \"#utility.yul\":2110:2149   */\n      mstore\n        /* \"#utility.yul\":2082:2084   */\n      0x20\n        /* \"#utility.yul\":2079:2080   */\n      dup2\n        /* \"#utility.yul\":2075:2085   */\n      add\n        /* \"#utility.yul\":2070:2085   */\n      swap1\n      pop\n        /* \"#utility.yul\":2046:2159   */\n      jump(tag_103)\n    tag_105:\n        /* \"#utility.yul\":2193:2194   */\n      0x00\n        /* \"#utility.yul\":2184:2190   */\n      dup5\n        /* \"#utility.yul\":2179:2182   */\n      dup5\n        /* \"#utility.yul\":2175:2191   */\n      add\n        /* \"#utility.yul\":2168:2195   */\n      mstore\n        /* \"#utility.yul\":2017:2201   */\n      pop\n        /* \"#utility.yul\":1955:2201   */\n      pop\n      pop\n      pop\n      jump\t// out\n        /* \"#utility.yul\":2207:2309   */\n    tag_64:\n        /* \"#utility.yul\":2248:2254   */\n      0x00\n        /* \"#utility.yul\":2299:2301   */\n      0x1f\n        /* \"#utility.yul\":2295:2302   */\n      not\n        /* \"#utility.yul\":2290:2292   */\n      0x1f\n        /* \"#utility.yul\":2283:2288   */\n      dup4\n        /* \"#utility.yul\":2279:2293   */\n      add\n        /* \"#utility.yul\":2275:2303   */\n      and\n        /* \"#utility.yul\":2265:2303   */\n      swap1\n      pop\n        /* \"#utility.yul\":2207:2309   */\n      swap2\n      swap1\n      pop\n      jump\t// out\n        /* \"#utility.yul\":2315:2688   */\n    tag_65:\n        /* \"#utility.yul\":2401:2404   */\n      0x00\n        /* \"#utility.yul\":2429:2467   */\n      tag_108\n        /* \"#utility.yul\":2461:2466   */\n      dup3\n        /* \"#utility.yul\":2429:2467   */\n      tag_61\n      jump\t// in\n    tag_108:\n        /* \"#utility.yul\":2483:2553   */\n      tag_109\n        /* \"#utility.yul\":2546:2552   */\n      dup2\n        /* \"#utility.yul\":2541:2544   */\n      dup6\n        /* \"#utility.yul\":2483:2553   */\n      tag_62\n      jump\t// in\n    tag_109:\n        /* \"#utility.yul\":2476:2553   */\n      swap4\n      pop\n        /* \"#utility.yul\":2562:2627   */\n      tag_110\n        /* \"#utility.yul\":2620:2626   */\n      dup2\n        /* \"#utility.yul\":2615:2618   */\n      dup6\n        /* \"#utility.yul\":2608:2612   */\n      0x20\n        /* \"#utility.yul\":2601:2606   */\n      dup7\n        /* \"#utility.yul\":2597:2613   */\n      add\n        /* \"#utility.yul\":2562:2627   */\n      tag_63\n      jump\t// in\n    tag_110:\n        /* \"#utility.yul\":2652:2681   */\n      tag_111\n        /* \"#utility.yul\":2674:2680   */\n      dup2\n        /* \"#utility.yul\":2652:2681   */\n      tag_64\n      jump\t// in\n    tag_111:\n        /* \"#utility.yul\":2647:2650   */\n      dup5\n        /* \"#utility.yul\":2643:2682   */\n      add\n        /* \"#utility.yul\":2636:2682   */\n      swap2\n      pop\n        /* \"#utility.yul\":2405:2688   */\n      pop\n        /* \"#utility.yul\":2315:2688   */\n      swap3\n      swap2\n      pop\n      pop\n      jump\t// out\n        /* \"#utility.yul\":2694:3003   */\n    tag_14:\n        /* \"#utility.yul\":2805:2809   */\n      0x00\n        /* \"#utility.yul\":2843:2845   */\n      0x20\n        /* \"#utility.yul\":2832:2841   */\n      dup3\n        /* \"#utility.yul\":2828:2846   */\n      add\n        /* \"#utility.yul\":2820:2846   */\n      swap1\n      pop\n        /* \"#utility.yul\":2892:2901   */\n      dup2\n        /* \"#utility.yul\":2886:2890   */\n      dup2\n        /* \"#utility.yul\":2882:2902   */\n      sub\n        /* \"#utility.yul\":2878:2879   */\n      0x00\n        /* \"#utility.yul\":2867:2876   */\n      dup4\n        /* \"#utility.yul\":2863:2880   */\n      add\n        /* \"#utility.yul\":2856:2903   */\n      mstore\n        /* \"#utility.yul\":2920:2996   */\n      tag_113\n        /* \"#utility.yul\":2991:2995   */\n      dup2\n        /* \"#utility.yul\":2982:2988   */\n      dup5\n        /* \"#utility.yul\":2920:2996   */\n      tag_65\n      jump\t// in\n    tag_113:\n        /* \"#utility.yul\":2912:2996   */\n      swap1\n      pop\n        /* \"#utility.yul\":2694:3003   */\n      swap3\n      swap2\n      pop\n      pop\n      jump\t// out\n        /* \"#utility.yul\":3009:3158   */\n    tag_66:\n        /* \"#utility.yul\":3045:3052   */\n      0x00\n        /* \"#utility.yul\":3085:3151   */\n      0xffffffff00000000000000000000000000000000000000000000000000000000\n        /* \"#utility.yul\":3078:3083   */\n      dup3\n        /* \"#utility.yul\":3074:3152   */\n      and\n        /* \"#utility.yul\":3063:3152   */\n      swap1\n      pop\n        /* \"#utility.yul\":3009:3158   */\n      swap2\n      swap1\n      pop\n      jump\t// out\n        /* \"#utility.yul\":3164:3279   */\n    tag_67:\n        /* \"#utility.yul\":3249:3272   */\n      tag_116\n        /* \"#utility.yul\":3266:3271   */\n      dup2\n        /* \"#utility.yul\":3249:3272   */\n      tag_66\n      jump\t// in\n    tag_116:\n        /* \"#utility.yul\":3244:3247   */\n      dup3\n        /* \"#utility.yul\":3237:3273   */\n      mstore\n        /* \"#utility.yul\":3164:3279   */\n      pop\n      pop\n      jump\t// out\n        /* \"#utility.yul\":3285:3375   */\n    tag_68:\n        /* \"#utility.yul\":3319:3326   */\n      0x00\n        /* \"#utility.yul\":3362:3367   */\n      dup2\n        /* \"#utility.yul\":3355:3368   */\n      iszero\n        /* \"#utility.yul\":3348:3369   */\n      iszero\n        /* \"#utility.yul\":3337:3369   */\n      swap1\n      pop\n        /* \"#utility.yul\":3285:3375   */\n      swap2\n      swap1\n      pop\n      jump\t// out\n        /* \"#utility.yul\":3381:3490   */\n    tag_69:\n        /* \"#utility.yul\":3462:3483   */\n      tag_119\n        /* \"#utility.yul\":3477:3482   */\n      dup2\n        /* \"#utility.yul\":3462:3483   */\n      tag_68\n      jump\t// in\n    tag_119:\n        /* \"#utility.yul\":3457:3460   */\n      dup3\n        /* \"#utility.yul\":3450:3484   */\n      mstore\n        /* \"#utility.yul\":3381:3490   */\n      pop\n      pop\n      jump\t// out\n        /* \"#utility.yul\":3496:3812   */\n    tag_19:\n        /* \"#utility.yul\":3609:3613   */\n      0x00\n        /* \"#utility.yul\":3647:3649   */\n      0x40\n        /* \"#utility.yul\":3636:3645   */\n      dup3\n        /* \"#utility.yul\":3632:3650   */\n      add\n        /* \"#utility.yul\":3624:3650   */\n      swap1\n      pop\n        /* \"#utility.yul\":3660:3729   */\n      tag_121\n        /* \"#utility.yul\":3726:3727   */\n      0x00\n        /* \"#utility.yul\":3715:3724   */\n      dup4\n        /* \"#utility.yul\":3711:3728   */\n      add\n        /* \"#utility.yul\":3702:3708   */\n      dup6\n        /* \"#utility.yul\":3660:3729   */\n      tag_67\n      jump\t// in\n    tag_121:\n        /* \"#utility.yul\":3739:3805   */\n      tag_122\n        /* \"#utility.yul\":3801:3803   */\n      0x20\n        /* \"#utility.yul\":3790:3799   */\n      dup4\n        /* \"#utility.yul\":3786:3804   */\n      add\n        /* \"#utility.yul\":3777:3783   */\n      dup5\n        /* \"#utility.yul\":3739:3805   */\n      tag_69\n      jump\t// in\n    tag_122:\n        /* \"#utility.yul\":3496:3812   */\n      swap4\n      swap3\n      pop\n      pop\n      pop\n      jump\t// out\n        /* \"#utility.yul\":3818:3936   */\n    tag_70:\n        /* \"#utility.yul\":3905:3929   */\n      tag_124\n        /* \"#utility.yul\":3923:3928   */\n      dup2\n        /* \"#utility.yul\":3905:3929   */\n      tag_55\n      jump\t// in\n    tag_124:\n        /* \"#utility.yul\":3900:3903   */\n      dup3\n        /* \"#utility.yul\":3893:3930   */\n      mstore\n        /* \"#utility.yul\":3818:3936   */\n      pop\n      pop\n      jump\t// out\n        /* \"#utility.yul\":3942:4164   */\n    tag_26:\n        /* \"#utility.yul\":4035:4039   */\n      0x00\n        /* \"#utility.yul\":4073:4075   */\n      0x20\n        /* \"#utility.yul\":4062:4071   */\n      dup3\n        /* \"#utility.yul\":4058:4076   */\n      add\n        /* \"#utility.yul\":4050:4076   */\n      swap1\n      pop\n        /* \"#utility.yul\":4086:4157   */\n      tag_126\n        /* \"#utility.yul\":4154:4155   */\n      0x00\n        /* \"#utility.yul\":4143:4152   */\n      dup4\n        /* \"#utility.yul\":4139:4156   */\n      add\n        /* \"#utility.yul\":4130:4136   */\n      dup5\n        /* \"#utility.yul\":4086:4157   */\n      tag_70\n      jump\t// in\n    tag_126:\n        /* \"#utility.yul\":3942:4164   */\n      swap3\n      swap2\n      pop\n      pop\n      jump\t// out\n        /* \"#utility.yul\":4170:4288   */\n    tag_71:\n        /* \"#utility.yul\":4257:4281   */\n      tag_128\n        /* \"#utility.yul\":4275:4280   */\n      dup2\n        /* \"#utility.yul\":4257:4281   */\n      tag_58\n      jump\t// in\n    tag_128:\n        /* \"#utility.yul\":4252:4255   */\n      dup3\n        /* \"#utility.yul\":4245:4282   */\n      mstore\n        /* \"#utility.yul\":4170:4288   */\n      pop\n      pop\n      jump\t// out\n        /* \"#utility.yul\":4294:4516   */\n    tag_30:\n        /* \"#utility.yul\":4387:4391   */\n      0x00\n        /* \"#utility.yul\":4425:4427   */\n      0x20\n        /* \"#utility.yul\":4414:4423   */\n      dup3\n        /* \"#utility.yul\":4410:4428   */\n      add\n        /* \"#utility.yul\":4402:4428   */\n      swap1\n      pop\n        /* \"#utility.yul\":4438:4509   */\n      tag_130\n        /* \"#utility.yul\":4506:4507   */\n      0x00\n        /* \"#utility.yul\":4495:4504   */\n      dup4\n        /* \"#utility.yul\":4491:4508   */\n      add\n        /* \"#utility.yul\":4482:4488   */\n      dup5\n        /* \"#utility.yul\":4438:4509   */\n      tag_71\n      jump\t// in\n    tag_130:\n        /* \"#utility.yul\":4294:4516   */\n      swap3\n      swap2\n      pop\n      pop\n      jump\t// out\n        /* \"#utility.yul\":4522:4740   */\n    tag_34:\n        /* \"#utility.yul\":4613:4617   */\n      0x00\n        /* \"#utility.yul\":4651:4653   */\n      0x20\n        /* \"#utility.yul\":4640:4649   */\n      dup3\n        /* \"#utility.yul\":4636:4654   */\n      add\n        /* \"#utility.yul\":4628:4654   */\n      swap1\n      pop\n        /* \"#utility.yul\":4664:4733   */\n      tag_132\n        /* \"#utility.yul\":4730:4731   */\n      0x00\n        /* \"#utility.yul\":4719:4728   */\n      dup4\n        /* \"#utility.yul\":4715:4732   */\n      add\n        /* \"#utility.yul\":4706:4712   */\n      dup5\n        /* \"#utility.yul\":4664:4733   */\n      tag_67\n      jump\t// in\n    tag_132:\n        /* \"#utility.yul\":4522:4740   */\n      swap3\n      swap2\n      pop\n      pop\n      jump\t// out\n        /* \"#utility.yul\":4746:5078   */\n    tag_38:\n        /* \"#utility.yul\":4867:4871   */\n      0x00\n        /* \"#utility.yul\":4905:4907   */\n      0x40\n        /* \"#utility.yul\":4894:4903   */\n      dup3\n        /* \"#utility.yul\":4890:4908   */\n      add\n        /* \"#utility.yul\":4882:4908   */\n      swap1\n      pop\n        /* \"#utility.yul\":4918:4989   */\n      tag_134\n        /* \"#utility.yul\":4986:4987   */\n      0x00\n        /* \"#utility.yul\":4975:4984   */\n      dup4\n        /* \"#utility.yul\":4971:4988   */\n      add\n        /* \"#utility.yul\":4962:4968   */\n      dup6\n        /* \"#utility.yul\":4918:4989   */\n      tag_70\n      jump\t// in\n    tag_134:\n        /* \"#utility.yul\":4999:5071   */\n      tag_135\n        /* \"#utility.yul\":5067:5069   */\n      0x20\n        /* \"#utility.yul\":5056:5065   */\n      dup4\n        /* \"#utility.yul\":5052:5070   */\n      add\n        /* \"#utility.yul\":5043:5049   */\n      dup5\n        /* \"#utility.yul\":4999:5071   */\n      tag_71\n      jump\t// in\n    tag_135:\n        /* \"#utility.yul\":4746:5078   */\n      swap4\n      swap3\n      pop\n      pop\n      pop\n      jump\t// out\n        /* \"#utility.yul\":5084:5231   */\n    tag_72:\n        /* \"#utility.yul\":5185:5196   */\n      0x00\n        /* \"#utility.yul\":5222:5225   */\n      dup2\n        /* \"#utility.yul\":5207:5225   */\n      swap1\n      pop\n        /* \"#utility.yul\":5084:5231   */\n      swap3\n      swap2\n      pop\n      pop\n      jump\t// out\n        /* \"#utility.yul\":5237:5623   */\n    tag_73:\n        /* \"#utility.yul\":5341:5344   */\n      0x00\n        /* \"#utility.yul\":5369:5407   */\n      tag_138\n        /* \"#utility.yul\":5401:5406   */\n      dup3\n        /* \"#utility.yul\":5369:5407   */\n      tag_61\n      jump\t// in\n    tag_138:\n        /* \"#utility.yul\":5423:5511   */\n      tag_139\n        /* \"#utility.yul\":5504:5510   */\n      dup2\n        /* \"#utility.yul\":5499:5502   */\n      dup6\n        /* \"#utility.yul\":5423:5511   */\n      tag_72\n      jump\t// in\n    tag_139:\n        /* \"#utility.yul\":5416:5511   */\n      swap4\n      pop\n        /* \"#utility.yul\":5520:5585   */\n      tag_140\n        /* \"#utility.yul\":5578:5584   */\n      dup2\n        /* \"#utility.yul\":5573:5576   */\n      dup6\n        /* \"#utility.yul\":5566:5570   */\n      0x20\n        /* \"#utility.yul\":5559:5564   */\n      dup7\n        /* \"#utility.yul\":5555:5571   */\n      add\n        /* \"#utility.yul\":5520:5585   */\n      tag_63\n      jump\t// in\n    tag_140:\n        /* \"#utility.yul\":5610:5616   */\n      dup1\n        /* \"#utility.yul\":5605:5608   */\n      dup5\n        /* \"#utility.yul\":5601:5617   */\n      add\n        /* \"#utility.yul\":5594:5617   */\n      swap2\n      pop\n        /* \"#utility.yul\":5345:5623   */\n      pop\n        /* \"#utility.yul\":5237:5623   */\n      swap3\n      swap2\n      pop\n      pop\n      jump\t// out\n        /* \"#utility.yul\":5629:5900   */\n    tag_43:\n        /* \"#utility.yul\":5759:5762   */\n      0x00\n        /* \"#utility.yul\":5781:5874   */\n      tag_142\n        /* \"#utility.yul\":5870:5873   */\n      dup3\n        /* \"#utility.yul\":5861:5867   */\n      dup5\n        /* \"#utility.yul\":5781:5874   */\n      tag_73\n      jump\t// in\n    tag_142:\n        /* \"#utility.yul\":5774:5874   */\n      swap2\n      pop\n        /* \"#utility.yul\":5891:5894   */\n      dup2\n        /* \"#utility.yul\":5884:5894   */\n      swap1\n      pop\n        /* \"#utility.yul\":5629:5900   */\n      swap3\n      swap2\n      pop\n      pop\n      jump\t// out\n        /* \"#utility.yul\":5906:6022   */\n    tag_74:\n        /* \"#utility.yul\":5957:5961   */\n      0x00\n        /* \"#utility.yul\":5980:5983   */\n      dup2\n        /* \"#utility.yul\":5972:5983   */\n      swap1\n      pop\n        /* \"#utility.yul\":6010:6014   */\n      0x20\n        /* \"#utility.yul\":6005:6008   */\n      dup3\n        /* \"#utility.yul\":6001:6015   */\n      add\n        /* \"#utility.yul\":5993:6015   */\n      swap1\n      pop\n        /* \"#utility.yul\":5906:6022   */\n      swap2\n      swap1\n      pop\n      jump\t// out\n        /* \"#utility.yul\":6028:6180   */\n    tag_75:\n        /* \"#utility.yul\":6070:6081   */\n      0x00\n        /* \"#utility.yul\":6106:6134   */\n      tag_145\n        /* \"#utility.yul\":6129:6132   */\n      dup3\n        /* \"#utility.yul\":6123:6133   */\n      mload\n        /* \"#utility.yul\":6106:6134   */\n      tag_66\n      jump\t// in\n    tag_145:\n        /* \"#utility.yul\":6168:6173   */\n      dup1\n        /* \"#utility.yul\":6144:6173   */\n      swap2\n      pop\n        /* \"#utility.yul\":6082:6180   */\n      pop\n        /* \"#utility.yul\":6028:6180   */\n      swap2\n      swap1\n      pop\n      jump\t// out\n        /* \"#utility.yul\":6186:6293   */\n    tag_76:\n        /* \"#utility.yul\":6230:6238   */\n      0x00\n        /* \"#utility.yul\":6280:6285   */\n      dup3\n        /* \"#utility.yul\":6274:6278   */\n      dup3\n        /* \"#utility.yul\":6270:6286   */\n      shl\n        /* \"#utility.yul\":6249:6286   */\n      swap1\n      pop\n        /* \"#utility.yul\":6186:6293   */\n      swap3\n      swap2\n      pop\n      pop\n      jump\t// out\n        /* \"#utility.yul\":6299:6889   */\n    tag_48:\n        /* \"#utility.yul\":6382:6387   */\n      0x00\n        /* \"#utility.yul\":6413:6451   */\n      tag_148\n        /* \"#utility.yul\":6445:6450   */\n      dup3\n        /* \"#utility.yul\":6413:6451   */\n      tag_61\n      jump\t// in\n    tag_148:\n        /* \"#utility.yul\":6476:6481   */\n      dup3\n        /* \"#utility.yul\":6503:6543   */\n      tag_149\n        /* \"#utility.yul\":6537:6542   */\n      dup5\n        /* \"#utility.yul\":6503:6543   */\n      tag_74\n      jump\t// in\n    tag_149:\n        /* \"#utility.yul\":6491:6543   */\n      swap1\n      pop\n        /* \"#utility.yul\":6562:6596   */\n      tag_150\n        /* \"#utility.yul\":6587:6595   */\n      dup2\n        /* \"#utility.yul\":6562:6596   */\n      tag_75\n      jump\t// in\n    tag_150:\n        /* \"#utility.yul\":6553:6596   */\n      swap3\n      pop\n        /* \"#utility.yul\":6620:6621   */\n      0x04\n        /* \"#utility.yul\":6612:6618   */\n      dup3\n        /* \"#utility.yul\":6609:6622   */\n      lt\n        /* \"#utility.yul\":6606:6882   */\n      iszero\n      tag_151\n      jumpi\n        /* \"#utility.yul\":6690:6858   */\n      tag_152\n        /* \"#utility.yul\":6774:6840   */\n      0xffffffff00000000000000000000000000000000000000000000000000000000\n        /* \"#utility.yul\":6744:6750   */\n      dup4\n        /* \"#utility.yul\":6741:6742   */\n      0x04\n        /* \"#utility.yul\":6737:6751   */\n      sub\n        /* \"#utility.yul\":6734:6735   */\n      0x08\n        /* \"#utility.yul\":6730:6752   */\n      mul\n        /* \"#utility.yul\":6690:6858   */\n      tag_76\n      jump\t// in\n    tag_152:\n        /* \"#utility.yul\":6667:6672   */\n      dup4\n        /* \"#utility.yul\":6646:6872   */\n      and\n        /* \"#utility.yul\":6637:6872   */\n      swap3\n      pop\n        /* \"#utility.yul\":6606:6882   */\n    tag_151:\n        /* \"#utility.yul\":6388:6889   */\n      pop\n      pop\n        /* \"#utility.yul\":6299:6889   */\n      swap2\n      swap1\n      pop\n      jump\t// out\n\n    auxdata: 0xa264697066735822122020e80ca7acec3065bcb22d67828d6729fa468b3874f13daf654011aea43bb2b164736f6c63430008130033\n}\n",
				"bytecode": {
					"linkReferences": {},
					"object": "608060405234801561001057600080fd5b5061073e806100206000396000f3fe608060405234801561001057600080fd5b50600436106100625760003560e01c80631e30088a14610067578063231de49b14610097578063a9059cbb146100c8578063aad229d5146100e4578063c6e93bad14610102578063e53aeefa14610120575b600080fd5b610081600480360381019061007c9190610413565b61013e565b60405161008e91906104e3565b60405180910390f35b6100b160048036038101906100ac9190610413565b6101c0565b6040516100bf92919061055b565b60405180910390f35b6100e260048036038101906100dd9190610413565b6102c1565b005b6100ec61030c565b6040516100f99190610593565b60405180910390f35b61010a610330565b60405161011791906105bd565b60405180910390f35b610128610336565b60405161013591906105d8565b60405180910390f35b6060610148610336565b838360405160240161015b9291906105f3565b604051602081830303815290604052907bffffffffffffffffffffffffffffffffffffffffffffffffffffffff19166020820180517bffffffffffffffffffffffffffffffffffffffffffffffffffffffff8381831617835250505050905092915050565b6000806000803073ffffffffffffffffffffffffffffffffffffffff166101e5610336565b87876040516024016101f89291906105f3565b604051602081830303815290604052907bffffffffffffffffffffffffffffffffffffffffffffffffffffffff19166020820180517bffffffffffffffffffffffffffffffffffffffffffffffffffffffff83818316178352505050506040516102629190610658565b6000604051808303816000865af19150503d806000811461029f576040519150601f19603f3d011682016040523d82523d6000602084013e6102a4565b606091505b5091509150806102b3906106a1565b829350935050509250929050565b816000806101000a81548173ffffffffffffffffffffffffffffffffffffffff021916908373ffffffffffffffffffffffffffffffffffffffff160217905550806001819055505050565b60008054906101000a900473ffffffffffffffffffffffffffffffffffffffff1681565b60015481565b60006040518060400160405280601981526020017f7472616e7366657228616464726573732c75696e74323536290000000000000081525080519060200120905090565b600080fd5b600073ffffffffffffffffffffffffffffffffffffffff82169050919050565b60006103aa8261037f565b9050919050565b6103ba8161039f565b81146103c557600080fd5b50565b6000813590506103d7816103b1565b92915050565b6000819050919050565b6103f0816103dd565b81146103fb57600080fd5b50565b60008135905061040d816103e7565b92915050565b6000806040838503121561042a5761042961037a565b5b6000610438858286016103c8565b9250506020610449858286016103fe565b9150509250929050565b600081519050919050565b600082825260208201905092915050565b60005b8381101561048d578082015181840152602081019050610472565b60008484015250505050565b6000601f19601f8301169050919050565b60006104b582610453565b6104bf818561045e565b93506104cf81856020860161046f565b6104d881610499565b840191505092915050565b600060208201905081810360008301526104fd81846104aa565b905092915050565b60007fffffffff0000000000000000000000000000000000000000000000000000000082169050919050565b61053a81610505565b82525050565b60008115159050919050565b61055581610540565b82525050565b60006040820190506105706000830185610531565b61057d602083018461054c565b9392505050565b61058d8161039f565b82525050565b60006020820190506105a86000830184610584565b92915050565b6105b7816103dd565b82525050565b60006020820190506105d260008301846105ae565b92915050565b60006020820190506105ed6000830184610531565b92915050565b60006040820190506106086000830185610584565b61061560208301846105ae565b9392505050565b600081905092915050565b600061063282610453565b61063c818561061c565b935061064c81856020860161046f565b80840191505092915050565b60006106648284610627565b915081905092915050565b6000819050602082019050919050565b600061068b8251610505565b80915050919050565b600082821b905092915050565b60006106ac82610453565b826106b68461066f565b90506106c18161067f565b92506004821015610701576106fc7fffffffff0000000000000000000000000000000000000000000000000000000083600403600802610694565b831692505b505091905056fea264697066735822122020e80ca7acec3065bcb22d67828d6729fa468b3874f13daf654011aea43bb2b164736f6c63430008130033",
					"opcodes": "PUSH1 0x80 PUSH1 0x40 MSTORE CALLVALUE DUP1 ISZERO PUSH2 0x10 JUMPI PUSH1 0x0 DUP1 REVERT JUMPDEST POP PUSH2 0x73E DUP1 PUSH2 0x20 PUSH1 0x0 CODECOPY PUSH1 0x0 RETURN INVALID PUSH1 0x80 PUSH1 0x40 MSTORE CALLVALUE DUP1 ISZERO PUSH2 0x10 JUMPI PUSH1 0x0 DUP1 REVERT JUMPDEST POP PUSH1 0x4 CALLDATASIZE LT PUSH2 0x62 JUMPI PUSH1 0x0 CALLDATALOAD PUSH1 0xE0 SHR DUP1 PUSH4 0x1E30088A EQ PUSH2 0x67 JUMPI DUP1 PUSH4 0x231DE49B EQ PUSH2 0x97 JUMPI DUP1 PUSH4 0xA9059CBB EQ PUSH2 0xC8 JUMPI DUP1 PUSH4 0xAAD229D5 EQ PUSH2 0xE4 JUMPI DUP1 PUSH4 0xC6E93BAD EQ PUSH2 0x102 JUMPI DUP1 PUSH4 0xE53AEEFA EQ PUSH2 0x120 JUMPI JUMPDEST PUSH1 0x0 DUP1 REVERT JUMPDEST PUSH2 0x81 PUSH1 0x4 DUP1 CALLDATASIZE SUB DUP2 ADD SWAP1 PUSH2 0x7C SWAP2 SWAP1 PUSH2 0x413 JUMP JUMPDEST PUSH2 0x13E JUMP JUMPDEST PUSH1 0x40 MLOAD PUSH2 0x8E SWAP2 SWAP1 PUSH2 0x4E3 JUMP JUMPDEST PUSH1 0x40 MLOAD DUP1 SWAP2 SUB SWAP1 RETURN JUMPDEST PUSH2 0xB1 PUSH1 0x4 DUP1 CALLDATASIZE SUB DUP2 ADD SWAP1 PUSH2 0xAC SWAP2 SWAP1 PUSH2 0x413 JUMP JUMPDEST PUSH2 0x1C0 JUMP JUMPDEST PUSH1 0x40 MLOAD PUSH2 0xBF SWAP3 SWAP2 SWAP1 PUSH2 0x55B JUMP JUMPDEST PUSH1 0x40 MLOAD DUP1 SWAP2 SUB SWAP1 RETURN JUMPDEST PUSH2 0xE2 PUSH1 0x4 DUP1 CALLDATASIZE SUB DUP2 ADD SWAP1 PUSH2 0xDD SWAP2 SWAP1 PUSH2 0x413 JUMP JUMPDEST PUSH2 0x2C1 JUMP JUMPDEST STOP JUMPDEST PUSH2 0xEC PUSH2 0x30C JUMP JUMPDEST PUSH1 0x40 MLOAD PUSH2 0xF9 SWAP2 SWAP1 PUSH2 0x593 JUMP JUMPDEST PUSH1 0x40 MLOAD DUP1 SWAP2 SUB SWAP1 RETURN JUMPDEST PUSH2 0x10A PUSH2 0x330 JUMP JUMPDEST PUSH1 0x40 MLOAD PUSH2 0x117 SWAP2 SWAP1 PUSH2 0x5BD JUMP JUMPDEST PUSH1 0x40 MLOAD DUP1 SWAP2 SUB SWAP1 RETURN JUMPDEST PUSH2 0x128 PUSH2 0x336 JUMP JUMPDEST PUSH1 0x40 MLOAD PUSH2 0x135 SWAP2 SWAP1 PUSH2 0x5D8 JUMP JUMPDEST PUSH1 0x40 MLOAD DUP1 SWAP2 SUB SWAP1 RETURN JUMPDEST PUSH1 0x60 PUSH2 0x148 PUSH2 0x336 JUMP JUMPDEST DUP4 DUP4 PUSH1 0x40 MLOAD PUSH1 0x24 ADD PUSH2 0x15B SWAP3 SWAP2 SWAP1 PUSH2 0x5F3 JUMP JUMPDEST PUSH1 0x40 MLOAD PUSH1 0x20 DUP2 DUP4 SUB SUB DUP2 MSTORE SWAP1 PUSH1 0x40 MSTORE SWAP1 PUSH28 0xFFFFFFFFFFFFFFFFFFFFFFFFFFFFFFFFFFFFFFFFFFFFFFFFFFFFFFFF NOT AND PUSH1 0x20 DUP3 ADD DUP1 MLOAD PUSH28 0xFFFFFFFFFFFFFFFFFFFFFFFFFFFFFFFFFFFFFFFFFFFFFFFFFFFFFFFF DUP4 DUP2 DUP4 AND OR DUP4 MSTORE POP POP POP POP SWAP1 POP SWAP3 SWAP2 POP POP JUMP JUMPDEST PUSH1 0x0 DUP1 PUSH1 0x0 DUP1 ADDRESS PUSH20 0xFFFFFFFFFFFFFFFFFFFFFFFFFFFFFFFFFFFFFFFF AND PUSH2 0x1E5 PUSH2 0x336 JUMP JUMPDEST DUP8 DUP8 PUSH1 0x40 MLOAD PUSH1 0x24 ADD PUSH2 0x1F8 SWAP3 SWAP2 SWAP1 PUSH2 0x5F3 JUMP JUMPDEST PUSH1 0x40 MLOAD PUSH1 0x20 DUP2 DUP4 SUB SUB DUP2 MSTORE SWAP1 PUSH1 0x40 MSTORE SWAP1 PUSH28 0xFFFFFFFFFFFFFFFFFFFFFFFFFFFFFFFFFFFFFFFFFFFFFFFFFFFFFFFF NOT AND PUSH1 0x20 DUP3 ADD DUP1 MLOAD PUSH28 0xFFFFFFFFFFFFFFFFFFFFFFFFFFFFFFFFFFFFFFFFFFFFFFFFFFFFFFFF DUP4 DUP2 DUP4 AND OR DUP4 MSTORE POP POP POP POP PUSH1 0x40 MLOAD PUSH2 0x262 SWAP2 SWAP1 PUSH2 0x658 JUMP JUMPDEST PUSH1 0x0 PUSH1 0x40 MLOAD DUP1 DUP4 SUB DUP2 PUSH1 0x0 DUP7 GAS CALL SWAP2 POP POP RETURNDATASIZE DUP1 PUSH1 0x0 DUP2 EQ PUSH2 0x29F JUMPI PUSH1 0x40 MLOAD SWAP2 POP PUSH1 0x1F NOT PUSH1 0x3F RETURNDATASIZE ADD AND DUP3 ADD PUSH1 0x40 MSTORE RETURNDATASIZE DUP3 MSTORE RETURNDATASIZE PUSH1 0x0 PUSH1 0x20 DUP5 ADD RETURNDATACOPY PUSH2 0x2A4 JUMP JUMPDEST PUSH1 0x60 SWAP2 POP JUMPDEST POP SWAP2 POP SWAP2 POP DUP1 PUSH2 0x2B3 SWAP1 PUSH2 0x6A1 JUMP JUMPDEST DUP3 SWAP4 POP SWAP4 POP POP POP SWAP3 POP SWAP3 SWAP1 POP JUMP JUMPDEST DUP2 PUSH1 0x0 DUP1 PUSH2 0x100 EXP DUP2 SLOAD DUP2 PUSH20 0xFFFFFFFFFFFFFFFFFFFFFFFFFFFFFFFFFFFFFFFF MUL NOT AND SWAP1 DUP4 PUSH20 0xFFFFFFFFFFFFFFFFFFFFFFFFFFFFFFFFFFFFFFFF AND MUL OR SWAP1 SSTORE POP DUP1 PUSH1 0x1 DUP2 SWAP1 SSTORE POP POP POP JUMP JUMPDEST PUSH1 0x0 DUP1 SLOAD SWAP1 PUSH2 0x100 EXP SWAP1 DIV PUSH20 0xFFFFFFFFFFFFFFFFFFFFFFFFFFFFFFFFFFFFFFFF AND DUP2 JUMP JUMPDEST PUSH1 0x1 SLOAD DUP2 JUMP JUMPDEST PUSH1 0x0 PUSH1 0x40 MLOAD DUP1 PUSH1 0x40 ADD PUSH1 0x40 MSTORE DUP1 PUSH1 0x19 DUP2 MSTORE PUSH1 0x20 ADD PUSH32 0x7472616E7366657228616464726573732C75696E743235362900000000000000 DUP2 MSTORE POP DUP1 MLOAD SWAP1 PUSH1 0x20 ADD KECCAK256 SWAP1 POP SWAP1 JUMP JUMPDEST PUSH1 0x0 DUP1 REVERT JUMPDEST PUSH1 0x0 PUSH20 0xFFFFFFFFFFFFFFFFFFFFFFFFFFFFFFFFFFFFFFFF DUP3 AND SWAP1 POP SWAP2 SWAP1 POP JUMP JUMPDEST PUSH1 0x0 PUSH2 0x3AA DUP3 PUSH2 0x37F JUMP JUMPDEST SWAP1 POP SWAP2 SWAP1 POP JUMP JUMPDEST PUSH2 0x3BA DUP2 PUSH2 0x39F JUMP JUMPDEST DUP2 EQ PUSH2 0x3C5 JUMPI PUSH1 0x0 DUP1 REVERT JUMPDEST POP JUMP JUMPDEST PUSH1 0x0 DUP2 CALLDATALOAD SWAP1 POP PUSH2 0x3D7 DUP2 PUSH2 0x3B1 JUMP JUMPDEST SWAP3 SWAP2 POP POP JUMP JUMPDEST PUSH1 0x0 DUP2 SWAP1 POP SWAP2 SWAP1 POP JUMP JUMPDEST PUSH2 0x3F0 DUP2 PUSH2 0x3DD JUMP JUMPDEST DUP2 EQ PUSH2 0x3FB JUMPI PUSH1 0x0 DUP1 REVERT JUMPDEST POP JUMP JUMPDEST PUSH1 0x0 DUP2 CALLDATALOAD SWAP1 POP PUSH2 0x40D DUP2 PUSH2 0x3E7 JUMP JUMPDEST SWAP3 SWAP2 POP POP JUMP JUMPDEST PUSH1 0x0 DUP1 PUSH1 0x40 DUP4 DUP6 SUB SLT ISZERO PUSH2 0x42A JUMPI PUSH2 0x429 PUSH2 0x37A JUMP JUMPDEST JUMPDEST PUSH1 0x0 PUSH2 0x438 DUP6 DUP3 DUP7 ADD PUSH2 0x3C8 JUMP JUMPDEST SWAP3 POP POP PUSH1 0x20 PUSH2 0x449 DUP6 DUP3 DUP7 ADD PUSH2 0x3FE JUMP JUMPDEST SWAP2 POP POP SWAP3 POP SWAP3 SWAP1 POP JUMP JUMPDEST PUSH1 0x0 DUP2 MLOAD SWAP1 POP SWAP2 SWAP1 POP JUMP JUMPDEST PUSH1 0x0 DUP3 DUP3 MSTORE PUSH1 0x20 DUP3 ADD SWAP1 POP SWAP3 SWAP2 POP POP JUMP JUMPDEST PUSH1 0x0 JUMPDEST DUP4 DUP2 LT ISZERO PUSH2 0x48D JUMPI DUP1 DUP3 ADD MLOAD DUP2 DUP5 ADD MSTORE PUSH1 0x20 DUP2 ADD SWAP1 POP PUSH2 0x472 JUMP JUMPDEST PUSH1 0x0 DUP5 DUP5 ADD MSTORE POP POP POP POP JUMP JUMPDEST PUSH1 0x0 PUSH1 0x1F NOT PUSH1 0x1F DUP4 ADD AND SWAP1 POP SWAP2 SWAP1 POP JUMP JUMPDEST PUSH1 0x0 PUSH2 0x4B5 DUP3 PUSH2 0x453 JUMP JUMPDEST PUSH2 0x4BF DUP2 DUP6 PUSH2 0x45E JUMP JUMPDEST SWAP4 POP PUSH2 0x4CF DUP2 DUP6 PUSH1 0x20 DUP7 ADD PUSH2 0x46F JUMP JUMPDEST PUSH2 0x4D8 DUP2 PUSH2 0x499 JUMP JUMPDEST DUP5 ADD SWAP2 POP POP SWAP3 SWAP2 POP POP JUMP JUMPDEST PUSH1 0x0 PUSH1 0x20 DUP3 ADD SWAP1 POP DUP2 DUP2 SUB PUSH1 0x0 DUP4 ADD MSTORE PUSH2 0x4FD DUP2 DUP5 PUSH2 0x4AA JUMP JUMPDEST SWAP1 POP SWAP3 SWAP2 POP POP JUMP JUMPDEST PUSH1 0x0 PUSH32 0xFFFFFFFF00000000000000000000000000000000000000000000000000000000 DUP3 AND SWAP1 POP SWAP2 SWAP1 POP JUMP JUMPDEST PUSH2 0x53A DUP2 PUSH2 0x505 JUMP JUMPDEST DUP3 MSTORE POP POP JUMP JUMPDEST PUSH1 0x0 DUP2 ISZERO ISZERO SWAP1 POP SWAP2 SWAP1 POP JUMP JUMPDEST PUSH2 0x555 DUP2 PUSH2 0x540 JUMP JUMPDEST DUP3 MSTORE POP POP JUMP JUMPDEST PUSH1 0x0 PUSH1 0x40 DUP3 ADD SWAP1 POP PUSH2 0x570 PUSH1 0x0 DUP4 ADD DUP6 PUSH2 0x531 JUMP JUMPDEST PUSH2 0x57D PUSH1 0x20 DUP4 ADD DUP5 PUSH2 0x54C JUMP JUMPDEST SWAP4 SWAP3 POP POP POP JUMP JUMPDEST PUSH2 0x58D DUP2 PUSH2 0x39F JUMP JUMPDEST DUP3 MSTORE POP POP JUMP JUMPDEST PUSH1 0x0 PUSH1 0x20 DUP3 ADD SWAP1 POP PUSH2 0x5A8 PUSH1 0x0 DUP4 ADD DUP5 PUSH2 0x584 JUMP JUMPDEST SWAP3 SWAP2 POP POP JUMP JUMPDEST PUSH2 0x5B7 DUP2 PUSH2 0x3DD JUMP JUMPDEST DUP3 MSTORE POP POP JUMP JUMPDEST PUSH1 0x0 PUSH1 0x20 DUP3 ADD SWAP1 POP PUSH2 0x5D2 PUSH1 0x0 DUP4 ADD DUP5 PUSH2 0x5AE JUMP JUMPDEST SWAP3 SWAP2 POP POP JUMP JUMPDEST PUSH1 0x0 PUSH1 0x20 DUP3 ADD SWAP1 POP PUSH2 0x5ED PUSH1 0x0 DUP4 ADD DUP5 PUSH2 0x531 JUMP JUMPDEST SWAP3 SWAP2 POP POP JUMP JUMPDEST PUSH1 0x0 PUSH1 0x40 DUP3 ADD SWAP1 POP PUSH2 0x608 PUSH1 0x0 DUP4 ADD DUP6 PUSH2 0x584 JUMP JUMPDEST PUSH2 0x615 PUSH1 0x20 DUP4 ADD DUP5 PUSH2 0x5AE JUMP JUMPDEST SWAP4 SWAP3 POP POP POP JUMP JUMPDEST PUSH1 0x0 DUP2 SWAP1 POP SWAP3 SWAP2 POP POP JUMP JUMPDEST PUSH1 0x0 PUSH2 0x632 DUP3 PUSH2 0x453 JUMP JUMPDEST PUSH2 0x63C DUP2 DUP6 PUSH2 0x61C JUMP JUMPDEST SWAP4 POP PUSH2 0x64C DUP2 DUP6 PUSH1 0x20 DUP7 ADD PUSH2 0x46F JUMP JUMPDEST DUP1 DUP5 ADD SWAP2 POP POP SWAP3 SWAP2 POP POP JUMP JUMPDEST PUSH1 0x0 PUSH2 0x664 DUP3 DUP5 PUSH2 0x627 JUMP JUMPDEST SWAP2 POP DUP2 SWAP1 POP SWAP3 SWAP2 POP POP JUMP JUMPDEST PUSH1 0x0 DUP2 SWAP1 POP PUSH1 0x20 DUP3 ADD SWAP1 POP SWAP2 SWAP1 POP JUMP JUMPDEST PUSH1 0x0 PUSH2 0x68B DUP3 MLOAD PUSH2 0x505 JUMP JUMPDEST DUP1 SWAP2 POP POP SWAP2 SWAP1 POP JUMP JUMPDEST PUSH1 0x0 DUP3 DUP3 SHL SWAP1 POP SWAP3 SWAP2 POP POP JUMP JUMPDEST PUSH1 0x0 PUSH2 0x6AC DUP3 PUSH2 0x453 JUMP JUMPDEST DUP3 PUSH2 0x6B6 DUP5 PUSH2 0x66F JUMP JUMPDEST SWAP1 POP PUSH2 0x6C1 DUP2 PUSH2 0x67F JUMP JUMPDEST SWAP3 POP PUSH1 0x4 DUP3 LT ISZERO PUSH2 0x701 JUMPI PUSH2 0x6FC PUSH32 0xFFFFFFFF00000000000000000000000000000000000000000000000000000000 DUP4 PUSH1 0x4 SUB PUSH1 0x8 MUL PUSH2 0x694 JUMP JUMPDEST DUP4 AND SWAP3 POP JUMPDEST POP POP SWAP2 SWAP1 POP JUMP INVALID LOG2 PUSH5 0x6970667358 0x22 SLT KECCAK256 KECCAK256 0xE8 0xC 0xA7 0xAC 0xEC ADDRESS PUSH6 0xBCB22D67828D PUSH8 0x29FA468B3874F13D 0xAF PUSH6 0x4011AEA43BB2 0xB1 PUSH5 0x736F6C6343 STOP ADDMOD SGT STOP CALLER "
				},
				"gasEstimates": {
					"creation": {
						"codeDepositCost": "370800",
						"executionCost": "405",
						"totalCost": "371205"
					},
					"external": {
						"callFunctionWithBinary(address,uint256)": "infinite",
						"getSelector1()": "535",
						"getdataToCallTransfer(address,uint256)": "infinite",
						"s_amount()": "2495",
						"s_someAddress()": "2555",
						"transfer(address,uint256)": "47031"
					}
				},
				"methodIdentifiers": {
					"callFunctionWithBinary(address,uint256)": "231de49b",
					"getSelector1()": "e53aeefa",
					"getdataToCallTransfer(address,uint256)": "1e30088a",
					"s_amount()": "c6e93bad",
					"s_someAddress()": "aad229d5",
					"transfer(address,uint256)": "a9059cbb"
				}
			},
			"storageLayout": {
				"storage": [
					{
						"astId": 3,
						"contract": "CallAnything.sol:CallAnything",
						"label": "s_someAddress",
						"offset": 0,
						"slot": "0",
						"type": "t_address"
					},
					{
						"astId": 5,
						"contract": "CallAnything.sol:CallAnything",
						"label": "s_amount",
						"offset": 0,
						"slot": "1",
						"type": "t_uint256"
					}
				],
				"types": {
					"t_address": {
						"encoding": "inplace",
						"label": "address",
						"numberOfBytes": "20"
					},
					"t_uint256": {
						"encoding": "inplace",
						"label": "uint256",
						"numberOfBytes": "32"
					}
				}
			},
			"userdoc": {
				"kind": "user",
				"methods": {},
				"version": 1
			}
		}
	}
}